:0C03940048756D693A0054656D703A00C0
:10013E00120371750B00750C00750D267B007A008D
:10014E0079281200B67BFF7A0379947D017F011224
:10015E0002F3750C02AB27AA267D067F011202CF91
:10016E007BFF7A03799A7D017F021202F3750C02EE
:10017E00AB29AA287D067F021202CF7FF47E0112E0
:04018E00031680AF25
:0B03AC00EF1FAC0670011E4C70F62223
:0A031600E4FDFCC3ED9FEC9E5014C3
:0D032000007513027514C7D514FDD513FA2E
:07032D000DBD00010C80E58D
:0103340022A6
:10026400E4FDFBEBC3940874809480502AED25E0F0
:10027400FD30A0FD7F037E001203AC30A0034305D4
:1002840001E4FF30A00EEFC39464748094805004A2
:090294000F0080EF0B80CCAF05D8
:01029D00223E
:0600B6008B088A09890A8B
:1000BC00C2A07F147E00120316D2A07F041203ACE0
:1000CC0020A06930A0FD20A0FDE4FAEAC3940574D9
:1000DC00809480500C120264740E2AF8A6070A80D1
:1000EC00EAAD0E7C00ED250FFFEC33FE7A00EF2518
:1000FC0010FFEA3EFEEF2511FFEA3EFEEFB5122996
:10010C00EAB50625ED250FFFEC33AB0BAA0CA90DB8
:10011C008FF0120097E5102511FFEC33AB08AA09FC
:10012C00A90A8FF012009780067F01227F01227F9F
:01013C0000C2
:01013D00229F
:06038500C2A58F80D2A783
:08038B007F027EEFDEFEDFFCC5
:010393002247
:0A03B700C2A6120385C2A702038B41
:10033500CFCDCFCECCCE1200427C007D0A1200423A
:04034500ED2430FF74
:0A034900D2A6120385C2A702038B9F
:10035300AE07EEFB7A0064017004ED148009EB64D0
:0E036300024A7009ED243F4480FF1203B722C6
:100371007F381203B77F0C1203B77F061203B77FD2
:04038100010203B7BB
:0A03C100AC03120353AF040203491A
:0602F3008B088A09890A4C
:1002F900120353E4FDAB08AA09A90A8D827583008C
:0C030900120003FF60061203490D80E99A
:0103150022C5
:0A029E00EF24FFFDEE34FFFC7F0AA1
:0802A8008E0D8F0E8C0F8D10DE
:1002B0007F017E00E4FBEBC39510E50F6480F874CA
:0E02C0008098500AAC0DAD0E1200300B80E895
:0102CE00220D
:0402CF008A0A8B0B01
:1002D300120353AA0CEAFF7E00D394007480948027
:0F02E300400D12029EAC0AAD0B1203351A80E6D5
:0102F20022E9
:0401DD008B828A8304
:1001E100120353C3E58364809480400D7F2B120377
:1001F1004985831A85821B80107F2D120349C3E430
:100201009582F51BE49583F51AAA19EAFF7E00D3BE
:10021100940074809480400D12029EAC1AAD1B12A2
:0502210003351A80E620
:0102260022B5
:040192008A1E8B1F17
:10019600120353AA20EAD39400748094804037EA6D
:1001A60024FFFDE434FFFC7F107E001202A8AC1E83
:1001B600AD1FCFCDCFCECCCE120042EF540FFEC333
:1001C600940A74809480EE5004243080022437FF11
:0601D6001203491A80BF6C
:0101DC002200
:040227008A238B2477
:10022B00120353AA25EAFF7E00D3940074809480B6
:10023B004026EF24FFFDEE34FFFC7F021202A8AC38
:10024B0023AD24CFCDCFCECCCE120042EF54012420
:08025B0030FF1203491A80CDA7
:010263002278
:030000000203A058
:0C03A000787FE4F6D8FD75812902013E4B
:10000300BB010CE58229F582E5833AF583E02250B2
:1000130006E92582F8E622BBFE06E92582F8E222FC
:0D002300E58229F582E5833AF583E4932216
:10003000EF8DF0A4A8F0CF8CF0A428CE8DF0A42EE4
:02004000FE229E
:10004200BC000BBE0029EF8DF084FFADF022E4CCA2
:10005200F875F008EF2FFFEE33FEEC33FCEE9DEC6B
:10006200984005FCEE9DFE0FD5F0E9E4CEFD22EDB1
:10007200F8F5F0EE8420D21CFEADF075F008EF2FFB
:10008200FFED33FD4007985006D5F0F222C398FDEC
:050092000FD5F0EA2289
:10009700BB010A89828A83F0E5F0A3F0225006F7B4
:0F00A70009A7F01922BBFE06F3E5F009F31922B1
:00000001FF
